{
  "contractName": "CoinFlipOracle",
  "abi": [
    {
      "inputs": [],
      "name": "provableID",
      "outputs": [
        {
          "internalType": "bytes32",
          "name": "",
          "type": "bytes32"
        }
      ],
      "stateMutability": "view",
      "type": "function"
    },
    {
      "inputs": [],
      "name": "result",
      "outputs": [
        {
          "internalType": "string",
          "name": "",
          "type": "string"
        }
      ],
      "stateMutability": "view",
      "type": "function"
    },
    {
      "inputs": [],
      "name": "flipCoin",
      "outputs": [],
      "stateMutability": "payable",
      "type": "function"
    },
    {
      "inputs": [
        {
          "internalType": "bytes32",
          "name": "_provableID",
          "type": "bytes32"
        },
        {
          "internalType": "string",
          "name": "_result",
          "type": "string"
        }
      ],
      "name": "__callback",
      "outputs": [],
      "stateMutability": "nonpayable",
      "type": "function"
    },
    {
      "inputs": [
        {
          "internalType": "bytes32",
          "name": "_myid",
          "type": "bytes32"
        },
        {
          "internalType": "string",
          "name": "_result",
          "type": "string"
        },
        {
          "internalType": "bytes",
          "name": "_proof",
          "type": "bytes"
        }
      ],
      "name": "__callback",
      "outputs": [],
      "stateMutability": "nonpayable",
      "type": "function"
    }
  ],
  "bytecode": "0x608060405234801561001057600080fd5b50611422806100206000396000f3fe60806040526004361061004a5760003560e01c806327dc297e1461004f57806338bbfa5014610121578063653721471461028a57806373d527811461031a578063799ae22314610345575b600080fd5b34801561005b57600080fd5b5061011f6004803603604081101561007257600080fd5b81019080803590602001909291908035906020019064010000000081111561009957600080fd5b8201836020820111156100ab57600080fd5b803590602001918460018302840111640100000000831117156100cd57600080fd5b91908080601f016020809104026020016040519081016040528093929190818152602001838380828437600081840152601f19601f82011690508083019250505050505050919291929050505061034f565b005b34801561012d57600080fd5b506102886004803603606081101561014457600080fd5b81019080803590602001909291908035906020019064010000000081111561016b57600080fd5b82018360208201111561017d57600080fd5b8035906020019184600183028401116401000000008311171561019f57600080fd5b91908080601f016020809104026020016040519081016040528093929190818152602001838380828437600081840152601f19601f8201169050808301925050505050505091929192908035906020019064010000000081111561020257600080fd5b82018360208201111561021457600080fd5b8035906020019184600183028401116401000000008311171561023657600080fd5b91908080601f016020809104026020016040519081016040528093929190818152602001838380828437600081840152601f19601f820116905080830192505050505050509192919290505050610412565b005b34801561029657600080fd5b5061029f610435565b6040518080602001828103825283818151815260200191508051906020019080838360005b838110156102df5780820151818401526020810190506102c4565b50505050905090810190601f16801561030c5780820380516001836020036101000a031916815260200191505b509250505060405180910390f35b34801561032657600080fd5b5061032f6104d3565b6040518082815260200191505060405180910390f35b61034d6104d9565b005b610357610555565b73ffffffffffffffffffffffffffffffffffffffff163373ffffffffffffffffffffffffffffffffffffffff16146103f7576040517f08c379a00000000000000000000000000000000000000000000000000000000081526004018080602001828103825260158152602001807f796f7520617265206e6f7420616e206f7261636c65000000000000000000000081525060200191505060405180910390fd5b806005908051906020019061040d929190611347565b505050565b6000801b600360008060001b815260200190815260200160002081905550505050565b60058054600181600116156101000203166002900480601f0160208091040260200160405190810160405280929190818152602001828054600181600116156101000203166002900480156104cb5780601f106104a0576101008083540402835291602001916104cb565b820191906000526020600020905b8154815290600101906020018083116104ae57829003601f168201915b505050505081565b60065481565b61054d6040518060400160405280600c81526020017f576f6c6672616d416c70686100000000000000000000000000000000000000008152506040518060400160405280600b81526020017f666c6970206120636f696e000000000000000000000000000000000000000000815250610874565b600681905550565b60008073ffffffffffffffffffffffffffffffffffffffff16600160009054906101000a900473ffffffffffffffffffffffffffffffffffffffff1673ffffffffffffffffffffffffffffffffffffffff1614806105dd575060006105db600160009054906101000a900473ffffffffffffffffffffffffffffffffffffffff16610dba565b145b156105ee576105ec6000610dc5565b505b600160009054906101000a900473ffffffffffffffffffffffffffffffffffffffff1673ffffffffffffffffffffffffffffffffffffffff166338cc48316040518163ffffffff1660e01b8152600401602060405180830381600087803b15801561065857600080fd5b505af115801561066c573d6000803e3d6000fd5b505050506040513d602081101561068257600080fd5b810190808051906020019092919050505073ffffffffffffffffffffffffffffffffffffffff166000809054906101000a900473ffffffffffffffffffffffffffffffffffffffff1673ffffffffffffffffffffffffffffffffffffffff16146107cb57600160009054906101000a900473ffffffffffffffffffffffffffffffffffffffff1673ffffffffffffffffffffffffffffffffffffffff166338cc48316040518163ffffffff1660e01b8152600401602060405180830381600087803b15801561075057600080fd5b505af1158015610764573d6000803e3d6000fd5b505050506040513d602081101561077a57600080fd5b81019080805190602001909291905050506000806101000a81548173ffffffffffffffffffffffffffffffffffffffff021916908373ffffffffffffffffffffffffffffffffffffffff1602179055505b6000809054906101000a900473ffffffffffffffffffffffffffffffffffffffff1673ffffffffffffffffffffffffffffffffffffffff1663c281d19e6040518163ffffffff1660e01b8152600401602060405180830381600087803b15801561083457600080fd5b505af1158015610848573d6000803e3d6000fd5b505050506040513d602081101561085e57600080fd5b8101908080519060200190929190505050905090565b60008073ffffffffffffffffffffffffffffffffffffffff16600160009054906101000a900473ffffffffffffffffffffffffffffffffffffffff1673ffffffffffffffffffffffffffffffffffffffff1614806108fc575060006108fa600160009054906101000a900473ffffffffffffffffffffffffffffffffffffffff16610dba565b145b1561090d5761090b6000610dc5565b505b600160009054906101000a900473ffffffffffffffffffffffffffffffffffffffff1673ffffffffffffffffffffffffffffffffffffffff166338cc48316040518163ffffffff1660e01b8152600401602060405180830381600087803b15801561097757600080fd5b505af115801561098b573d6000803e3d6000fd5b505050506040513d60208110156109a157600080fd5b810190808051906020019092919050505073ffffffffffffffffffffffffffffffffffffffff166000809054906101000a900473ffffffffffffffffffffffffffffffffffffffff1673ffffffffffffffffffffffffffffffffffffffff1614610aea57600160009054906101000a900473ffffffffffffffffffffffffffffffffffffffff1673ffffffffffffffffffffffffffffffffffffffff166338cc48316040518163ffffffff1660e01b8152600401602060405180830381600087803b158015610a6f57600080fd5b505af1158015610a83573d6000803e3d6000fd5b505050506040513d6020811015610a9957600080fd5b81019080805190602001909291905050506000806101000a81548173ffffffffffffffffffffffffffffffffffffffff021916908373ffffffffffffffffffffffffffffffffffffffff1602179055505b60008060009054906101000a900473ffffffffffffffffffffffffffffffffffffffff1673ffffffffffffffffffffffffffffffffffffffff1663524f3889856040518263ffffffff1660e01b81526004018080602001828103825283818151815260200191508051906020019080838360005b83811015610b79578082015181840152602081019050610b5e565b50505050905090810190601f168015610ba65780820380516001836020036101000a031916815260200191505b5092505050602060405180830381600087803b158015610bc557600080fd5b505af1158015610bd9573d6000803e3d6000fd5b505050506040513d6020811015610bef57600080fd5b8101908080519060200190929190505050905062030d403a02670de0b6b3a764000001811115610c25576000801b915050610db4565b6000809054906101000a900473ffffffffffffffffffffffffffffffffffffffff1673ffffffffffffffffffffffffffffffffffffffff1663adf59f9982600087876040518563ffffffff1660e01b8152600401808481526020018060200180602001838103835285818151815260200191508051906020019080838360005b83811015610cc0578082015181840152602081019050610ca5565b50505050905090810190601f168015610ced5780820380516001836020036101000a031916815260200191505b50838103825284818151815260200191508051906020019080838360005b83811015610d26578082015181840152602081019050610d0b565b50505050905090810190601f168015610d535780820380516001836020036101000a031916815260200191505b50955050505050506020604051808303818588803b158015610d7457600080fd5b505af1158015610d88573d6000803e3d6000fd5b50505050506040513d6020811015610d9f57600080fd5b81019080805190602001909291905050509150505b92915050565b6000813b9050919050565b6000610dcf610dd6565b9050919050565b600080610df6731d3b2638a7cc9f2cb3d298a3da7a90b67e5506ed610dba565b1115610e9857731d3b2638a7cc9f2cb3d298a3da7a90b67e5506ed600160006101000a81548173ffffffffffffffffffffffffffffffffffffffff021916908373ffffffffffffffffffffffffffffffffffffffff160217905550610e8f6040518060400160405280600b81526020017f6574685f6d61696e6e657400000000000000000000000000000000000000000081525061132d565b6001905061132a565b6000610eb773c03a2615d5efaf5f49f60b7bb6583eaec212fdf1610dba565b1115610f595773c03a2615d5efaf5f49f60b7bb6583eaec212fdf1600160006101000a81548173ffffffffffffffffffffffffffffffffffffffff021916908373ffffffffffffffffffffffffffffffffffffffff160217905550610f506040518060400160405280600c81526020017f6574685f726f707374656e33000000000000000000000000000000000000000081525061132d565b6001905061132a565b6000610f7873b7a07bcf2ba2f2703b24c0691b5278999c59ac7e610dba565b111561101a5773b7a07bcf2ba2f2703b24c0691b5278999c59ac7e600160006101000a81548173ffffffffffffffffffffffffffffffffffffffff021916908373ffffffffffffffffffffffffffffffffffffffff1602179055506110116040518060400160405280600981526020017f6574685f6b6f76616e000000000000000000000000000000000000000000000081525061132d565b6001905061132a565b600061103973146500cfd35b22e4a392fe0adc06de1a1368ed48610dba565b11156110db5773146500cfd35b22e4a392fe0adc06de1a1368ed48600160006101000a81548173ffffffffffffffffffffffffffffffffffffffff021916908373ffffffffffffffffffffffffffffffffffffffff1602179055506110d26040518060400160405280600b81526020017f6574685f72696e6b65627900000000000000000000000000000000000000000081525061132d565b6001905061132a565b60006110fa73a2998efd205fb9d4b4963afb70778d6354ad3a41610dba565b111561119c5773a2998efd205fb9d4b4963afb70778d6354ad3a41600160006101000a81548173ffffffffffffffffffffffffffffffffffffffff021916908373ffffffffffffffffffffffffffffffffffffffff1602179055506111936040518060400160405280600a81526020017f6574685f676f65726c690000000000000000000000000000000000000000000081525061132d565b6001905061132a565b60006111bb736f485c8bf6fc43ea212e93bbf8ce046c7f1cb475610dba565b111561121f57736f485c8bf6fc43ea212e93bbf8ce046c7f1cb475600160006101000a81548173ffffffffffffffffffffffffffffffffffffffff021916908373ffffffffffffffffffffffffffffffffffffffff1602179055506001905061132a565b600061123e7320e12a1f859b3feae5fb2a0a32c18f5a65555bbf610dba565b11156112a2577320e12a1f859b3feae5fb2a0a32c18f5a65555bbf600160006101000a81548173ffffffffffffffffffffffffffffffffffffffff021916908373ffffffffffffffffffffffffffffffffffffffff1602179055506001905061132a565b60006112c17351efaf4c8b3c9afbd5ab9f4bbc82784ab6ef8faa610dba565b1115611325577351efaf4c8b3c9afbd5ab9f4bbc82784ab6ef8faa600160006101000a81548173ffffffffffffffffffffffffffffffffffffffff021916908373ffffffffffffffffffffffffffffffffffffffff1602179055506001905061132a565b600090505b90565b8060029080519060200190611343929190611347565b5050565b828054600181600116156101000203166002900490600052602060002090601f016020900481019282601f1061138857805160ff19168380011785556113b6565b828001600101855582156113b6579182015b828111156113b557825182559160200191906001019061139a565b5b5090506113c391906113c7565b5090565b6113e991905b808211156113e55760008160009055506001016113cd565b5090565b9056fea264697066735822122066f812dbc196777772f6b19d5a29eed5b99797e17b0caf15c4dbe26807f8791264736f6c63430006060033",
  "immutableReferences": {},
  "source": "pragma solidity > 0.6.1 < 0.7.0;\n\nimport \"./provableAPI_0.6.sol\";\ncontract CoinFlipOracle is usingProvable {\n  \n  string public result;\n  bytes32 public provableID;\n\n  function flipCoin() public payable {\n    provableID = provable_query(\"WolframAlpha\", \"flip a coin\");\n  }\n\n  function __callback(bytes32 _provableID, string memory _result) override public {\n    require(msg.sender == provable_cbAddress(), \"you are not an oracle\");\n    result = _result;\n  }\n}",
  "sourcePath": "/Users/anhdungle/learning/Oracles_from_Provable/contracts/CoinFlipOracle.sol",
  "compiler": {
    "name": "solc",
    "version": "0.6.6+commit.6c089d02.Emscripten.clang"
  },
  "schemaVersion": "3.1.0",
  "updatedAt": "2020-05-22T09:58:36.500Z",
  "devdoc": {
    "methods": {}
  },
  "userdoc": {
    "methods": {}
  }
}